{
    "contractName": "LibraryContract",
    "abi": [
        {
            "inputs": [],
            "payable": false,
            "stateMutability": "nonpayable",
            "type": "constructor"
        },
        {
            "anonymous": false,
            "inputs": [
                {
                    "indexed": false,
                    "internalType": "uint256",
                    "name": "BookId",
                    "type": "uint256"
                },
                {
                    "indexed": false,
                    "internalType": "enum LibraryContract.BookType",
                    "name": "bookType",
                    "type": "uint8"
                },
                {
                    "indexed": false,
                    "internalType": "string",
                    "name": "BookTitle",
                    "type": "string"
                },
                {
                    "indexed": false,
                    "internalType": "string",
                    "name": "BookDescribtion",
                    "type": "string"
                },
                {
                    "indexed": false,
                    "internalType": "string",
                    "name": "BookLocation",
                    "type": "string"
                },
                {
                    "indexed": false,
                    "internalType": "uint256",
                    "name": "BookPrice",
                    "type": "uint256"
                },
                {
                    "indexed": false,
                    "internalType": "address payable",
                    "name": "owner",
                    "type": "address"
                }
            ],
            "name": "BookCreated",
            "type": "event"
        },
        {
            "anonymous": false,
            "inputs": [
                {
                    "indexed": false,
                    "internalType": "uint256",
                    "name": "bookId",
                    "type": "uint256"
                },
                {
                    "indexed": false,
                    "internalType": "enum LibraryContract.BookType",
                    "name": "bookType",
                    "type": "uint8"
                },
                {
                    "indexed": false,
                    "internalType": "string",
                    "name": "bookTitle",
                    "type": "string"
                },
                {
                    "indexed": false,
                    "internalType": "string",
                    "name": "bookDescribtion",
                    "type": "string"
                },
                {
                    "indexed": false,
                    "internalType": "string",
                    "name": "bookLocation",
                    "type": "string"
                },
                {
                    "indexed": false,
                    "internalType": "uint256",
                    "name": "bookPrice",
                    "type": "uint256"
                },
                {
                    "indexed": false,
                    "internalType": "address payable",
                    "name": "owner",
                    "type": "address"
                }
            ],
            "name": "BookPurchased",
            "type": "event"
        },
        {
            "constant": true,
            "inputs": [
                {
                    "internalType": "uint256",
                    "name": "",
                    "type": "uint256"
                }
            ],
            "name": "books",
            "outputs": [
                {
                    "internalType": "uint256",
                    "name": "bookId",
                    "type": "uint256"
                },
                {
                    "internalType": "enum LibraryContract.BookType",
                    "name": "bookType",
                    "type": "uint8"
                },
                {
                    "internalType": "string",
                    "name": "bookTitle",
                    "type": "string"
                },
                {
                    "internalType": "string",
                    "name": "bookDescribtion",
                    "type": "string"
                },
                {
                    "internalType": "uint256",
                    "name": "bookPrice",
                    "type": "uint256"
                },
                {
                    "internalType": "string",
                    "name": "bookLocation",
                    "type": "string"
                },
                {
                    "internalType": "address payable",
                    "name": "owner",
                    "type": "address"
                }
            ],
            "payable": false,
            "stateMutability": "view",
            "type": "function"
        },
        {
            "constant": true,
            "inputs": [],
            "name": "booksCount",
            "outputs": [
                {
                    "internalType": "uint256",
                    "name": "",
                    "type": "uint256"
                }
            ],
            "payable": false,
            "stateMutability": "view",
            "type": "function"
        },
        {
            "constant": true,
            "inputs": [],
            "name": "contractName",
            "outputs": [
                {
                    "internalType": "string",
                    "name": "",
                    "type": "string"
                }
            ],
            "payable": false,
            "stateMutability": "view",
            "type": "function"
        },
        {
            "constant": false,
            "inputs": [
                {
                    "internalType": "enum LibraryContract.BookType",
                    "name": "_bookType",
                    "type": "uint8"
                },
                {
                    "internalType": "string",
                    "name": "_bookTitle",
                    "type": "string"
                },
                {
                    "internalType": "string",
                    "name": "_bookDescribtion",
                    "type": "string"
                },
                {
                    "internalType": "string",
                    "name": "_bookLocation",
                    "type": "string"
                },
                {
                    "internalType": "uint256",
                    "name": "_bookPrice",
                    "type": "uint256"
                }
            ],
            "name": "createBook",
            "outputs": [],
            "payable": false,
            "stateMutability": "nonpayable",
            "type": "function"
        },
        {
            "constant": false,
            "inputs": [
                {
                    "internalType": "uint256",
                    "name": "_bookId",
                    "type": "uint256"
                }
            ],
            "name": "purchaseBook",
            "outputs": [],
            "payable": true,
            "stateMutability": "payable",
            "type": "function"
        }
    ],
    "bytecode": "0x608060405260006001553480156200001657600080fd5b506040518060400160405280601e81526020017f43616d6572696e6f20446563656e7472616c697a6564204c696272617279000081525060009080519060200190620000649291906200006b565b506200011a565b828054600181600116156101000203166002900490600052602060002090601f016020900481019282601f10620000ae57805160ff1916838001178555620000df565b82800160010185558215620000df579182015b82811115620000de578251825591602001919060010190620000c1565b5b509050620000ee9190620000f2565b5090565b6200011791905b8082111562000113576000816000905550600101620000f9565b5090565b90565b6114be806200012a6000396000f3fe60806040526004361061004a5760003560e01c80631c555f471461004f578063687440461461007d5780636c8811821461025f57806375d0c0dc1461046c578063e1cb4d03146104fc575b600080fd5b61007b6004803603602081101561006557600080fd5b8101908080359060200190929190505050610527565b005b34801561008957600080fd5b506100b6600480360360208110156100a057600080fd5b8101908080359060200190929190505050610cbc565b604051808881526020018760028111156100cc57fe5b60ff1681526020018060200180602001868152602001806020018573ffffffffffffffffffffffffffffffffffffffff1673ffffffffffffffffffffffffffffffffffffffff168152602001848103845289818151815260200191508051906020019080838360005b83811015610150578082015181840152602081019050610135565b50505050905090810190601f16801561017d5780820380516001836020036101000a031916815260200191505b50848103835288818151815260200191508051906020019080838360005b838110156101b657808201518184015260208101905061019b565b50505050905090810190601f1680156101e35780820380516001836020036101000a031916815260200191505b50848103825286818151815260200191508051906020019080838360005b8381101561021c578082015181840152602081019050610201565b50505050905090810190601f1680156102495780820380516001836020036101000a031916815260200191505b509a505050505050505050505060405180910390f35b34801561026b57600080fd5b5061046a600480360360a081101561028257600080fd5b81019080803560ff169060200190929190803590602001906401000000008111156102ac57600080fd5b8201836020820111156102be57600080fd5b803590602001918460018302840111640100000000831117156102e057600080fd5b91908080601f016020809104026020016040519081016040528093929190818152602001838380828437600081840152601f19601f8201169050808301925050505050505091929192908035906020019064010000000081111561034357600080fd5b82018360208201111561035557600080fd5b8035906020019184600183028401116401000000008311171561037757600080fd5b91908080601f016020809104026020016040519081016040528093929190818152602001838380828437600081840152601f19601f820116905080830192505050505050509192919290803590602001906401000000008111156103da57600080fd5b8201836020820111156103ec57600080fd5b8035906020019184600183028401116401000000008311171561040e57600080fd5b91908080601f016020809104026020016040519081016040528093929190818152602001838380828437600081840152601f19601f82011690508083019250505050505050919291929080359060200190929190505050610ef3565b005b34801561047857600080fd5b5061048161129d565b6040518080602001828103825283818151815260200191508051906020019080838360005b838110156104c15780820151818401526020810190506104a6565b50505050905090810190601f1680156104ee5780820380516001836020036101000a031916815260200191505b509250505060405180910390f35b34801561050857600080fd5b5061051161133b565b6040518082815260200191505060405180910390f35b61052f611341565b600260008381526020019081526020016000206040518060e0016040529081600082015481526020016001820160009054906101000a900460ff16600281111561057557fe5b600281111561058057fe5b8152602001600282018054600181600116156101000203166002900480601f01602080910402602001604051908101604052809291908181526020018280546001816001161561010002031660029004801561061d5780601f106105f25761010080835404028352916020019161061d565b820191906000526020600020905b81548152906001019060200180831161060057829003601f168201915b50505050508152602001600382018054600181600116156101000203166002900480601f0160208091040260200160405190810160405280929190818152602001828054600181600116156101000203166002900480156106bf5780601f10610694576101008083540402835291602001916106bf565b820191906000526020600020905b8154815290600101906020018083116106a257829003601f168201915b5050505050815260200160048201548152602001600582018054600181600116156101000203166002900480601f01602080910402602001604051908101604052809291908181526020018280546001816001161561010002031660029004801561076b5780601f106107405761010080835404028352916020019161076b565b820191906000526020600020905b81548152906001019060200180831161074e57829003601f168201915b505050505081526020016006820160009054906101000a900473ffffffffffffffffffffffffffffffffffffffff1673ffffffffffffffffffffffffffffffffffffffff1673ffffffffffffffffffffffffffffffffffffffff1681525050905060008160c001519050600082600001511180156107ef5750600154826000015111155b610861576040517f08c379a000000000000000000000000000000000000000000000000000000000815260040180806020018281038252600d8152602001807f77726f6e6720426f6f6b2069640000000000000000000000000000000000000081525060200191505060405180910390fd5b81608001513410156108be576040517f08c379a00000000000000000000000000000000000000000000000000000000081526004018080602001828103825260458152602001806114456045913960600191505060405180910390fd5b3373ffffffffffffffffffffffffffffffffffffffff168173ffffffffffffffffffffffffffffffffffffffff161415610960576040517f08c379a00000000000000000000000000000000000000000000000000000000081526004018080602001828103825260188152602001807f63616e27742062757920796f7572206f776e20426f6f6b73000000000000000081525060200191505060405180910390fd5b338260c0019073ffffffffffffffffffffffffffffffffffffffff16908173ffffffffffffffffffffffffffffffffffffffff168152505081600260008581526020019081526020016000206000820151816000015560208201518160010160006101000a81548160ff021916908360028111156109da57fe5b021790555060408201518160020190805190602001906109fb92919061139f565b506060820151816003019080519060200190610a1892919061139f565b506080820151816004015560a0820151816005019080519060200190610a3f92919061139f565b5060c08201518160060160006101000a81548173ffffffffffffffffffffffffffffffffffffffff021916908373ffffffffffffffffffffffffffffffffffffffff1602179055509050508073ffffffffffffffffffffffffffffffffffffffff166108fc349081150290604051600060405180830381858888f19350505050158015610ad0573d6000803e3d6000fd5b507f350610794862b5edfd0d7ad0b02602e33009af8eebc10fbfc21d46525f2f82866001548360200151846040015185606001518660a0015187608001513360405180888152602001876002811115610b2557fe5b60ff1681526020018060200180602001806020018681526020018573ffffffffffffffffffffffffffffffffffffffff1673ffffffffffffffffffffffffffffffffffffffff168152602001848103845289818151815260200191508051906020019080838360005b83811015610ba9578082015181840152602081019050610b8e565b50505050905090810190601f168015610bd65780820380516001836020036101000a031916815260200191505b50848103835288818151815260200191508051906020019080838360005b83811015610c0f578082015181840152602081019050610bf4565b50505050905090810190601f168015610c3c5780820380516001836020036101000a031916815260200191505b50848103825287818151815260200191508051906020019080838360005b83811015610c75578082015181840152602081019050610c5a565b50505050905090810190601f168015610ca25780820380516001836020036101000a031916815260200191505b509a505050505050505050505060405180910390a1505050565b60026020528060005260406000206000915090508060000154908060010160009054906101000a900460ff1690806002018054600181600116156101000203166002900480601f016020809104026020016040519081016040528092919081815260200182805460018160011615610100020316600290048015610d815780601f10610d5657610100808354040283529160200191610d81565b820191906000526020600020905b815481529060010190602001808311610d6457829003601f168201915b505050505090806003018054600181600116156101000203166002900480601f016020809104026020016040519081016040528092919081815260200182805460018160011615610100020316600290048015610e1f5780601f10610df457610100808354040283529160200191610e1f565b820191906000526020600020905b815481529060010190602001808311610e0257829003601f168201915b505050505090806004015490806005018054600181600116156101000203166002900480601f016020809104026020016040519081016040528092919081815260200182805460018160011615610100020316600290048015610ec35780601f10610e9857610100808354040283529160200191610ec3565b820191906000526020600020905b815481529060010190602001808311610ea657829003601f168201915b5050505050908060060160009054906101000a900473ffffffffffffffffffffffffffffffffffffffff16905087565b60008111610f69576040517f08c379a00000000000000000000000000000000000000000000000000000000081526004018080602001828103825260188152602001807f426f6f6b207072696365206973206e6f742076616c696421000000000000000081525060200191505060405180910390fd5b6001600081548092919060010191905055506040518060e001604052806001548152602001866002811115610f9a57fe5b81526020018581526020018481526020018281526020018381526020013373ffffffffffffffffffffffffffffffffffffffff168152506002600060015481526020019081526020016000206000820151816000015560208201518160010160006101000a81548160ff0219169083600281111561101457fe5b0217905550604082015181600201908051906020019061103592919061139f565b50606082015181600301908051906020019061105292919061139f565b506080820151816004015560a082015181600501908051906020019061107992919061139f565b5060c08201518160060160006101000a81548173ffffffffffffffffffffffffffffffffffffffff021916908373ffffffffffffffffffffffffffffffffffffffff1602179055509050507f5d350523f2a5eb09bb7ca3b0a7dfaa0f2b605be4965f82d96034faef29d0bace6001548686868686336040518088815260200187600281111561110457fe5b60ff1681526020018060200180602001806020018681526020018573ffffffffffffffffffffffffffffffffffffffff1673ffffffffffffffffffffffffffffffffffffffff168152602001848103845289818151815260200191508051906020019080838360005b8381101561118857808201518184015260208101905061116d565b50505050905090810190601f1680156111b55780820380516001836020036101000a031916815260200191505b50848103835288818151815260200191508051906020019080838360005b838110156111ee5780820151818401526020810190506111d3565b50505050905090810190601f16801561121b5780820380516001836020036101000a031916815260200191505b50848103825287818151815260200191508051906020019080838360005b83811015611254578082015181840152602081019050611239565b50505050905090810190601f1680156112815780820380516001836020036101000a031916815260200191505b509a505050505050505050505060405180910390a15050505050565b60008054600181600116156101000203166002900480601f0160208091040260200160405190810160405280929190818152602001828054600181600116156101000203166002900480156113335780601f1061130857610100808354040283529160200191611333565b820191906000526020600020905b81548152906001019060200180831161131657829003601f168201915b505050505081565b60015481565b6040518060e00160405280600081526020016000600281111561136057fe5b815260200160608152602001606081526020016000815260200160608152602001600073ffffffffffffffffffffffffffffffffffffffff1681525090565b828054600181600116156101000203166002900490600052602060002090601f016020900481019282601f106113e057805160ff191683800117855561140e565b8280016001018555821561140e579182015b8281111561140d5782518255916020019190600101906113f2565b5b50905061141b919061141f565b5090565b61144191905b8082111561143d576000816000905550600101611425565b5090565b9056fe6e6f7420656e6f75676820746f6b656e202877686174657665722077652063616c6c207468697320746f6b656e206c617465722c206d617962652043616d69546f6b656e29a265627a7a72315820a9eddae895737a25e429405fb6837a3ba2ed68fba30d1e59c78aec6d6938214264736f6c63430005100032",
    "source": "pragma solidity >=0.4.21;\n\ncontract LibraryContract {\n    //state var\n    string public contractName;\n\n    //use this not to point at empty mapping\n    uint256 public booksCount = 0;\n\n    //similar to linkedList\n    mapping(uint256 => Book) public books;\n\n    //enum of Book Types\n    enum BookType {Technical, Manuals, OTHER}\n\n    constructor() public {\n        contractName = \"Camerino Decentralized Library\";\n    }\n\n    struct Book {\n        uint256 bookId;\n        BookType bookType; //change this to enum\n        string bookTitle;\n        string bookDescribtion;\n        uint256 bookPrice;\n        string bookLocation; //link to IPFS\n        address payable owner;\n    }\n\n    event BookCreated(\n        uint256 BookId,\n        BookType bookType,\n        string BookTitle,\n        string BookDescribtion,\n        string BookLocation,\n        uint256 BookPrice,\n        address payable owner\n    );\n\n    event BookPurchased(\n        uint256 bookId,\n        BookType bookType,\n        string bookTitle,\n        string bookDescribtion,\n        string bookLocation,\n        uint256 bookPrice,\n        address payable owner\n    );\n\n    function createBook(\n        BookType _bookType,\n        string memory _bookTitle,\n        string memory _bookDescribtion,\n        string memory _bookLocation,\n        uint256 _bookPrice\n    ) public {\n        //requires valid name and price\n        //require(bytes(_bookTitle).length > 0, \"Book Title is not valid!\");\n        require(_bookPrice > 0, \"Book price is not valid!\");\n\n        booksCount++;\n\n        //create the Book\n        books[booksCount] = Book(\n            booksCount,\n            _bookType,\n            _bookTitle,\n            _bookDescribtion,\n            _bookPrice,\n            _bookLocation,\n            msg.sender\n        );\n\n        //emit the event\n        emit BookCreated(\n            booksCount,\n            _bookType,\n            _bookTitle,\n            _bookDescribtion,\n            _bookLocation,\n            _bookPrice,\n            msg.sender\n        );\n    }\n\n    function purchaseBook(uint256 _bookId) public payable {\n        //fetch the Book\n        Book memory _book = books[_bookId];\n\n        //fetch the owner\n        address payable _seller = _book.owner;\n\n        //ensure Book has a valid id\n        require(\n            _book.bookId > 0 && _book.bookId <= booksCount,\n            \"wrong Book id\"\n        );\n\n        //require that it has enough Ether\n        require(\n            msg.value >= _book.bookPrice,\n            \"not enough token (whatever we call this token later, maybe CamiToken)\"\n        );\n\n        //require that buyer is not seller\n        require(_seller != msg.sender, \"can't buy your own Books\");\n\n        //now we ensured all, transfer ownership and mark as Purchased\n        _book.owner = msg.sender;\n\n        //update the list\n        books[_bookId] = _book;\n\n        //pay the seller\n        _seller.transfer(msg.value);\n\n        //trigger purchase event\n        emit BookPurchased(\n            booksCount,\n            _book.bookType,\n            _book.bookTitle,\n            _book.bookDescribtion,\n            _book.bookLocation,\n            _book.bookPrice,\n            msg.sender\n        );\n    }\n}\n",
    "sourcePath": "/home/camerino/Ali/biblioRepo/biblio/contracts/LibraryContract.sol",
    "compiler": {
        "name": "solc",
        "version": "0.5.16+commit.9c3226ce.Emscripten.clang"
    },
    "schemaVersion": "3.2.0",
    "updatedAt": "2020-06-26T15:20:40.613Z",
    "networkType": "quorum",
    "devdoc": {
        "methods": {}
    },
    "userdoc": {
        "methods": {}
    }
}