{
  "contractName": "LibraryContract",
  "abi": [
    {
      "inputs": [],
      "payable": false,
      "stateMutability": "nonpayable",
      "type": "constructor"
    },
    {
      "anonymous": false,
      "inputs": [
        {
          "indexed": false,
          "internalType": "uint256",
          "name": "BookId",
          "type": "uint256"
        },
        {
          "indexed": false,
          "internalType": "enum LibraryContract.BookType",
          "name": "bookType",
          "type": "uint8"
        },
        {
          "indexed": false,
          "internalType": "string",
          "name": "BookTitle",
          "type": "string"
        },
        {
          "indexed": false,
          "internalType": "string",
          "name": "BookDescribtion",
          "type": "string"
        },
        {
          "indexed": false,
          "internalType": "string",
          "name": "BookLocation",
          "type": "string"
        },
        {
          "indexed": false,
          "internalType": "uint256",
          "name": "BookPrice",
          "type": "uint256"
        },
        {
          "indexed": false,
          "internalType": "address payable",
          "name": "owner",
          "type": "address"
        }
      ],
      "name": "BookCreated",
      "type": "event"
    },
    {
      "anonymous": false,
      "inputs": [
        {
          "indexed": false,
          "internalType": "uint256",
          "name": "bookId",
          "type": "uint256"
        },
        {
          "indexed": false,
          "internalType": "enum LibraryContract.BookType",
          "name": "bookType",
          "type": "uint8"
        },
        {
          "indexed": false,
          "internalType": "string",
          "name": "bookTitle",
          "type": "string"
        },
        {
          "indexed": false,
          "internalType": "string",
          "name": "bookDescribtion",
          "type": "string"
        },
        {
          "indexed": false,
          "internalType": "string",
          "name": "bookLocation",
          "type": "string"
        },
        {
          "indexed": false,
          "internalType": "uint256",
          "name": "bookPrice",
          "type": "uint256"
        },
        {
          "indexed": false,
          "internalType": "address payable",
          "name": "owner",
          "type": "address"
        }
      ],
      "name": "BookPurchased",
      "type": "event"
    },
    {
      "constant": true,
      "inputs": [
        {
          "internalType": "uint256",
          "name": "",
          "type": "uint256"
        }
      ],
      "name": "books",
      "outputs": [
        {
          "internalType": "uint256",
          "name": "bookId",
          "type": "uint256"
        },
        {
          "internalType": "enum LibraryContract.BookType",
          "name": "bookType",
          "type": "uint8"
        },
        {
          "internalType": "string",
          "name": "bookTitle",
          "type": "string"
        },
        {
          "internalType": "string",
          "name": "bookDescribtion",
          "type": "string"
        },
        {
          "internalType": "uint256",
          "name": "bookPrice",
          "type": "uint256"
        },
        {
          "internalType": "string",
          "name": "bookLocation",
          "type": "string"
        },
        {
          "internalType": "address payable",
          "name": "owner",
          "type": "address"
        }
      ],
      "payable": false,
      "stateMutability": "view",
      "type": "function"
    },
    {
      "constant": true,
      "inputs": [],
      "name": "booksCount",
      "outputs": [
        {
          "internalType": "uint256",
          "name": "",
          "type": "uint256"
        }
      ],
      "payable": false,
      "stateMutability": "view",
      "type": "function"
    },
    {
      "constant": true,
      "inputs": [],
      "name": "contractName",
      "outputs": [
        {
          "internalType": "string",
          "name": "",
          "type": "string"
        }
      ],
      "payable": false,
      "stateMutability": "view",
      "type": "function"
    },
    {
      "constant": false,
      "inputs": [
        {
          "internalType": "enum LibraryContract.BookType",
          "name": "_bookType",
          "type": "uint8"
        },
        {
          "internalType": "string",
          "name": "_bookTitle",
          "type": "string"
        },
        {
          "internalType": "string",
          "name": "_bookDescribtion",
          "type": "string"
        },
        {
          "internalType": "string",
          "name": "_bookLocation",
          "type": "string"
        },
        {
          "internalType": "uint256",
          "name": "_bookPrice",
          "type": "uint256"
        }
      ],
      "name": "createBook",
      "outputs": [],
      "payable": false,
      "stateMutability": "nonpayable",
      "type": "function"
    },
    {
      "constant": false,
      "inputs": [
        {
          "internalType": "uint256",
          "name": "_bookId",
          "type": "uint256"
        }
      ],
      "name": "purchaseBook",
      "outputs": [],
      "payable": true,
      "stateMutability": "payable",
      "type": "function"
    },
    {
      "constant": true,
      "inputs": [],
      "name": "getBooksCount",
      "outputs": [
        {
          "internalType": "uint256",
          "name": "",
          "type": "uint256"
        }
      ],
      "payable": false,
      "stateMutability": "view",
      "type": "function"
    },
    {
      "constant": false,
      "inputs": [],
      "name": "setBooksCount",
      "outputs": [],
      "payable": false,
      "stateMutability": "nonpayable",
      "type": "function"
    }
  ],
  "bytecode": "0x60806040526105396001553480156200001757600080fd5b506040518060400160405280601e81526020017f43616d6572696e6f204465636e657472616c697a6564204c696272617279000081525060009080519060200190620000659291906200006c565b506200011b565b828054600181600116156101000203166002900490600052602060002090601f016020900481019282601f10620000af57805160ff1916838001178555620000e0565b82800160010185558215620000e0579182015b82811115620000df578251825591602001919060010190620000c2565b5b509050620000ef9190620000f3565b5090565b6200011891905b8082111562000114576000816000905550600101620000fa565b5090565b90565b6115a6806200012b6000396000f3fe6080604052600436106100705760003560e01c806375d0c0dc1161004e57806375d0c0dc14610492578063dfd83d2a14610522578063e1cb4d031461054d578063fd3bdc001461057857610070565b80631c555f471461007557806368744046146100a35780636c88118214610285575b600080fd5b6100a16004803603602081101561008b57600080fd5b810190808035906020019092919050505061058f565b005b3480156100af57600080fd5b506100dc600480360360208110156100c657600080fd5b8101908080359060200190929190505050610d24565b604051808881526020018760028111156100f257fe5b60ff1681526020018060200180602001868152602001806020018573ffffffffffffffffffffffffffffffffffffffff1673ffffffffffffffffffffffffffffffffffffffff168152602001848103845289818151815260200191508051906020019080838360005b8381101561017657808201518184015260208101905061015b565b50505050905090810190601f1680156101a35780820380516001836020036101000a031916815260200191505b50848103835288818151815260200191508051906020019080838360005b838110156101dc5780820151818401526020810190506101c1565b50505050905090810190601f1680156102095780820380516001836020036101000a031916815260200191505b50848103825286818151815260200191508051906020019080838360005b83811015610242578082015181840152602081019050610227565b50505050905090810190601f16801561026f5780820380516001836020036101000a031916815260200191505b509a505050505050505050505060405180910390f35b34801561029157600080fd5b50610490600480360360a08110156102a857600080fd5b81019080803560ff169060200190929190803590602001906401000000008111156102d257600080fd5b8201836020820111156102e457600080fd5b8035906020019184600183028401116401000000008311171561030657600080fd5b91908080601f016020809104026020016040519081016040528093929190818152602001838380828437600081840152601f19601f8201169050808301925050505050505091929192908035906020019064010000000081111561036957600080fd5b82018360208201111561037b57600080fd5b8035906020019184600183028401116401000000008311171561039d57600080fd5b91908080601f016020809104026020016040519081016040528093929190818152602001838380828437600081840152601f19601f8201169050808301925050505050505091929192908035906020019064010000000081111561040057600080fd5b82018360208201111561041257600080fd5b8035906020019184600183028401116401000000008311171561043457600080fd5b91908080601f016020809104026020016040519081016040528093929190818152602001838380828437600081840152601f19601f82011690508083019250505050505050919291929080359060200190929190505050610f5b565b005b34801561049e57600080fd5b506104a7611372565b6040518080602001828103825283818151815260200191508051906020019080838360005b838110156104e75780820151818401526020810190506104cc565b50505050905090810190601f1680156105145780820380516001836020036101000a031916815260200191505b509250505060405180910390f35b34801561052e57600080fd5b50610537611410565b6040518082815260200191505060405180910390f35b34801561055957600080fd5b5061056261141a565b6040518082815260200191505060405180910390f35b34801561058457600080fd5b5061058d611420565b005b610597611429565b600260008381526020019081526020016000206040518060e0016040529081600082015481526020016001820160009054906101000a900460ff1660028111156105dd57fe5b60028111156105e857fe5b8152602001600282018054600181600116156101000203166002900480601f0160208091040260200160405190810160405280929190818152602001828054600181600116156101000203166002900480156106855780601f1061065a57610100808354040283529160200191610685565b820191906000526020600020905b81548152906001019060200180831161066857829003601f168201915b50505050508152602001600382018054600181600116156101000203166002900480601f0160208091040260200160405190810160405280929190818152602001828054600181600116156101000203166002900480156107275780601f106106fc57610100808354040283529160200191610727565b820191906000526020600020905b81548152906001019060200180831161070a57829003601f168201915b5050505050815260200160048201548152602001600582018054600181600116156101000203166002900480601f0160208091040260200160405190810160405280929190818152602001828054600181600116156101000203166002900480156107d35780601f106107a8576101008083540402835291602001916107d3565b820191906000526020600020905b8154815290600101906020018083116107b657829003601f168201915b505050505081526020016006820160009054906101000a900473ffffffffffffffffffffffffffffffffffffffff1673ffffffffffffffffffffffffffffffffffffffff1673ffffffffffffffffffffffffffffffffffffffff1681525050905060008160c001519050600082600001511180156108575750600154826000015111155b6108c9576040517f08c379a000000000000000000000000000000000000000000000000000000000815260040180806020018281038252600d8152602001807f77726f6e6720426f6f6b2069640000000000000000000000000000000000000081525060200191505060405180910390fd5b8160800151341015610926576040517f08c379a000000000000000000000000000000000000000000000000000000000815260040180806020018281038252604581526020018061152d6045913960600191505060405180910390fd5b3373ffffffffffffffffffffffffffffffffffffffff168173ffffffffffffffffffffffffffffffffffffffff1614156109c8576040517f08c379a00000000000000000000000000000000000000000000000000000000081526004018080602001828103825260188152602001807f63616e27742062757920796f7572206f776e20426f6f6b73000000000000000081525060200191505060405180910390fd5b338260c0019073ffffffffffffffffffffffffffffffffffffffff16908173ffffffffffffffffffffffffffffffffffffffff168152505081600260008581526020019081526020016000206000820151816000015560208201518160010160006101000a81548160ff02191690836002811115610a4257fe5b02179055506040820151816002019080519060200190610a63929190611487565b506060820151816003019080519060200190610a80929190611487565b506080820151816004015560a0820151816005019080519060200190610aa7929190611487565b5060c08201518160060160006101000a81548173ffffffffffffffffffffffffffffffffffffffff021916908373ffffffffffffffffffffffffffffffffffffffff1602179055509050508073ffffffffffffffffffffffffffffffffffffffff166108fc349081150290604051600060405180830381858888f19350505050158015610b38573d6000803e3d6000fd5b507f350610794862b5edfd0d7ad0b02602e33009af8eebc10fbfc21d46525f2f82866001548360200151846040015185606001518660a0015187608001513360405180888152602001876002811115610b8d57fe5b60ff1681526020018060200180602001806020018681526020018573ffffffffffffffffffffffffffffffffffffffff1673ffffffffffffffffffffffffffffffffffffffff168152602001848103845289818151815260200191508051906020019080838360005b83811015610c11578082015181840152602081019050610bf6565b50505050905090810190601f168015610c3e5780820380516001836020036101000a031916815260200191505b50848103835288818151815260200191508051906020019080838360005b83811015610c77578082015181840152602081019050610c5c565b50505050905090810190601f168015610ca45780820380516001836020036101000a031916815260200191505b50848103825287818151815260200191508051906020019080838360005b83811015610cdd578082015181840152602081019050610cc2565b50505050905090810190601f168015610d0a5780820380516001836020036101000a031916815260200191505b509a505050505050505050505060405180910390a1505050565b60026020528060005260406000206000915090508060000154908060010160009054906101000a900460ff1690806002018054600181600116156101000203166002900480601f016020809104026020016040519081016040528092919081815260200182805460018160011615610100020316600290048015610de95780601f10610dbe57610100808354040283529160200191610de9565b820191906000526020600020905b815481529060010190602001808311610dcc57829003601f168201915b505050505090806003018054600181600116156101000203166002900480601f016020809104026020016040519081016040528092919081815260200182805460018160011615610100020316600290048015610e875780601f10610e5c57610100808354040283529160200191610e87565b820191906000526020600020905b815481529060010190602001808311610e6a57829003601f168201915b505050505090806004015490806005018054600181600116156101000203166002900480601f016020809104026020016040519081016040528092919081815260200182805460018160011615610100020316600290048015610f2b5780601f10610f0057610100808354040283529160200191610f2b565b820191906000526020600020905b815481529060010190602001808311610f0e57829003601f168201915b5050505050908060060160009054906101000a900473ffffffffffffffffffffffffffffffffffffffff16905087565b6000845111610fd2576040517f08c379a00000000000000000000000000000000000000000000000000000000081526004018080602001828103825260188152602001807f426f6f6b205469746c65206973206e6f742076616c696421000000000000000081525060200191505060405180910390fd5b60008111611048576040517f08c379a00000000000000000000000000000000000000000000000000000000081526004018080602001828103825260188152602001807f426f6f6b207072696365206973206e6f742076616c696421000000000000000081525060200191505060405180910390fd5b611050611420565b6040518060e00160405280600154815260200186600281111561106f57fe5b81526020018581526020018481526020018281526020018381526020013373ffffffffffffffffffffffffffffffffffffffff168152506002600060015481526020019081526020016000206000820151816000015560208201518160010160006101000a81548160ff021916908360028111156110e957fe5b0217905550604082015181600201908051906020019061110a929190611487565b506060820151816003019080519060200190611127929190611487565b506080820151816004015560a082015181600501908051906020019061114e929190611487565b5060c08201518160060160006101000a81548173ffffffffffffffffffffffffffffffffffffffff021916908373ffffffffffffffffffffffffffffffffffffffff1602179055509050507f5d350523f2a5eb09bb7ca3b0a7dfaa0f2b605be4965f82d96034faef29d0bace600154868686868633604051808881526020018760028111156111d957fe5b60ff1681526020018060200180602001806020018681526020018573ffffffffffffffffffffffffffffffffffffffff1673ffffffffffffffffffffffffffffffffffffffff168152602001848103845289818151815260200191508051906020019080838360005b8381101561125d578082015181840152602081019050611242565b50505050905090810190601f16801561128a5780820380516001836020036101000a031916815260200191505b50848103835288818151815260200191508051906020019080838360005b838110156112c35780820151818401526020810190506112a8565b50505050905090810190601f1680156112f05780820380516001836020036101000a031916815260200191505b50848103825287818151815260200191508051906020019080838360005b8381101561132957808201518184015260208101905061130e565b50505050905090810190601f1680156113565780820380516001836020036101000a031916815260200191505b509a505050505050505050505060405180910390a15050505050565b60008054600181600116156101000203166002900480601f0160208091040260200160405190810160405280929190818152602001828054600181600116156101000203166002900480156114085780601f106113dd57610100808354040283529160200191611408565b820191906000526020600020905b8154815290600101906020018083116113eb57829003601f168201915b505050505081565b6000600154905090565b60015481565b60018081905550565b6040518060e00160405280600081526020016000600281111561144857fe5b815260200160608152602001606081526020016000815260200160608152602001600073ffffffffffffffffffffffffffffffffffffffff1681525090565b828054600181600116156101000203166002900490600052602060002090601f016020900481019282601f106114c857805160ff19168380011785556114f6565b828001600101855582156114f6579182015b828111156114f55782518255916020019190600101906114da565b5b5090506115039190611507565b5090565b61152991905b8082111561152557600081600090555060010161150d565b5090565b9056fe6e6f7420656e6f75676820746f6b656e202877686174657665722077652063616c6c207468697320746f6b656e206c617465722c206d617962652043616d69546f6b656e29a265627a7a723158209e234146f9b6c34cb4aab5db6207db48e7129f06be13cec14ae4686a1318e39064736f6c63430005100032",
  "source": "pragma solidity >=0.4.21;\r\n\r\ncontract LibraryContract {\r\n    //state var\r\n    string public contractName;\r\n\r\n    //use this not to point at empty mapping\r\n    uint256 public booksCount = 1337;\r\n\r\n    //similar to linkedList\r\n    mapping(uint256 => Book) public books;\r\n\r\n    //enum of Book Types\r\n    enum BookType {Technical, Manuals, OTHER}\r\n\r\n    constructor() public {\r\n        contractName = \"Camerino Decnetralized Library\";\r\n    }\r\n\r\n    struct Book {\r\n\r\n        uint256 bookId;\r\n        BookType bookType; //change this to enum\r\n        string bookTitle;\r\n        string bookDescribtion;\r\n        uint256 bookPrice;\r\n        string bookLocation; //link to IPFS\r\n        address payable owner;\r\n\r\n    }\r\n\r\n    event BookCreated(\r\n        uint256 BookId,\r\n        BookType bookType,\r\n        string BookTitle,\r\n        string BookDescribtion,\r\n        string BookLocation,\r\n        uint256 BookPrice,\r\n        address payable owner\r\n    );\r\n\r\n    event BookPurchased(\r\n        uint256 bookId,\r\n        BookType bookType,\r\n        string bookTitle,\r\n        string bookDescribtion,\r\n        string bookLocation,\r\n        uint256 bookPrice,\r\n        address payable owner\r\n    );\r\n\r\n    function createBook(\r\n        BookType _bookType,\r\n        string memory _bookTitle,\r\n        string memory _bookDescribtion,\r\n        string memory _bookLocation,\r\n        uint256 _bookPrice\r\n         ) public {\r\n\r\n        //requires valid name and price\r\n        require(bytes(_bookTitle).length > 0, \"Book Title is not valid!\");\r\n        require(_bookPrice > 0, \"Book price is not valid!\");\r\n\r\n        setBooksCount();\r\n\r\n        //create the Book\r\n        books[booksCount] = Book(booksCount,\r\n        _bookType,\r\n        _bookTitle,\r\n        _bookDescribtion,\r\n        _bookPrice,\r\n        _bookLocation,\r\n        msg.sender\r\n        );\r\n\r\n        //emit the event\r\n        emit BookCreated(booksCount,\r\n        _bookType,\r\n        _bookTitle,\r\n        _bookDescribtion,\r\n        _bookLocation,\r\n        _bookPrice,\r\n        msg.sender\r\n        );\r\n\r\n    }\r\n\r\n\r\n    function purchaseBook(uint256 _bookId)public payable{\r\n\r\n        //fetch the Book\r\n        Book memory _book = books[_bookId];\r\n\r\n        //fetch the owner\r\n        address payable _seller = _book.owner;\r\n\r\n        //ensure Book has a valid id\r\n        require(_book.bookId>0 && _book.bookId<=booksCount, \"wrong Book id\");\r\n\r\n         //require that it has enough Ether\r\n        require(msg.value>=_book.bookPrice, \"not enough token (whatever we call this token later, maybe CamiToken)\");\r\n\r\n\r\n        //require that buyer is not seller\r\n        require(_seller != msg.sender, \"can't buy your own Books\");\r\n\r\n        //now we ensured all, transfer ownership and mark as Purchased\r\n        _book.owner = msg.sender;\r\n\r\n\r\n        //update the list\r\n        books[_bookId] = _book;\r\n\r\n        //pay the seller\r\n        _seller.transfer(msg.value);\r\n\r\n        //trigger purchase event\r\n        emit BookPurchased(booksCount,_book.bookType,_book.bookTitle,_book.bookDescribtion,\r\n        _book.bookLocation,_book.bookPrice,msg.sender);\r\n\r\n    }\r\n\r\n\r\n    function getBooksCount() public view returns (uint256) {\r\n        return booksCount;\r\n    }\r\n\r\n    function setBooksCount() public {\r\n        booksCount = 1;\r\n        //\r\n    }\r\n\r\n}\r\n",
  "sourcePath": "C:\\Users\\richa\\Development\\Camerino Besu\\GroupProject\\contracts\\LibraryContract.sol",
  "compiler": {
    "name": "solc",
    "version": "0.5.16+commit.9c3226ce.Emscripten.clang"
  },
  "schemaVersion": "3.2.0",
  "updatedAt": "2020-05-30T17:39:14.025Z",
  "devdoc": {
    "methods": {}
  },
  "userdoc": {
    "methods": {}
  }
}